:020000040800F2
:100000008811002069020008D92400087D23000817
:10001000D5240008D3030008494B00080000000065
:10002000000000000000000000000000ED290008B2
:1000300029040008000000005D260008EF290008E0
:10004000830200088302000883020008830200087C
:10005000830200088302000883020008830200086C
:10006000830200088302000883020008830200085C
:10007000830200088302000883020008830200084C
:10008000830200088302000883020008830200083C
:10009000830200088302000883020008830200082C
:1000A000830200088302000883020008830200081C
:1000B000830200088302000883020008830200080C
:1000C00083020008830200088302000883020008FC
:1000D00083020008830200088302000883020008EC
:1000E00083020008830200088302000883020008DC
:1000F00083020008830200088302000883020008CC
:1001000083020008830200088302000883020008BB
:1001100083020008830200088302000883020008AB
:10012000830200088302000883020008830200089B
:10013000830200088302000883020008830200088B
:10014000830200088302000883020008DD240008FF
:10015000830200088302000883020008830200086B
:10016000830200088302000883020008830200085B
:1001700083020008830200088302000800000000D8
:10018000830200088302000800F002F800F05CF827
:100190000AA090E8000C82448344AAF10107DA45E2
:1001A00001D100F051F8AFF2090EBAE80F0013F0D8
:1001B000010F18BFFB1A43F0010318476C4B0000F6
:1001C0008C4B00000A444FF0000C10F8013B13F078
:1001D000070408BF10F8014B1D1108BF10F8015BA0
:1001E000641E05D010F8016B641E01F8016BF9D193
:1001F00013F0080F1EBF10F8014BAD1C0C1B09D1EA
:100200006D1E58BF01F801CBFAD505E014F8016B5B
:1002100001F8016B6D1EF9D59142D6D370470000ED
:100220000023002400250026103A28BF78C1FBD8FF
:10023000520728BF30C148BF0B6070471FB504F09C
:1002400049FD1FBD10B510BD00F08AF81146FFF73B
:10025000F5FF04F097FC00F0A8F803B4FFF7F2FFF5
:1002600003BC00F0AFF80000094880470948004788
:10027000FEE7FEE7FEE7FEE7FEE7FEE7FEE7FEE756
:10028000FEE7FEE704480549054A064B70470000B3
:10029000B12A000889010008880B0020881100207D
:1002A000880D0020880D002010B5203AC0F00B808A
:1002B000B1E81850203AA0E81850B1E81850A0E86A
:1002C0001850BFF4F5AF5FEA027C24BFB1E81850C4
:1002D000A0E8185044BF18C918C0BDE810405FEA34
:1002E000827C24BF51F8043B40F8043B08BF7047B0
:1002F000D20728BF31F8023B48BF11F8012B28BFB5
:1003000020F8023B48BF00F8012B70474FF0000275
:1003100000B5134694469646203922BFA0E80C50FB
:10032000A0E80C50B1F12001BFF4F7AF090728BFD6
:10033000A0E80C5048BF0CC05DF804EB890028BF52
:1003400040F8042B08BF704748BF20F8022B11F07B
:10035000804F18BF00F8012B7047704770477047F7
:10036000754600F02BF8AE4605006946534620F06E
:100370000700854618B020B5FFF784FFBDE8204090
:100380004FF000064FF000074FF000084FF0000B51
:1003900021F00701AC46ACE8C009ACE8C009ACE804
:1003A000C009ACE8C0098D46704710B50446AFF3EC
:1003B00000802046BDE81040FFF74FBF004870475F
:1003C000280B002001491820ABBEFEE726000200E2
:1003D000704700BFFEE70020704700000248034955
:1003E00008600020704700002C020020540000200C
:1003F00030B502460B4609480068D0F8901200203C
:1004000004E00C5C064D2C54441CE0B20228F8DBDE
:100410000120044C2070002030BD0000540000205A
:10042000AC010020000000207047704770B50A48FA
:100430000468001D0568001D0668344454B1082294
:100440000649204601F09CFF042204491031284649
:1004500001F096FF70BD00009075FF1FAE000020F8
:1004600070B5044600F020F906462546681C10B118
:1004700004480068054400BF00F016F9801BA8423C
:10048000FAD370BDD000002078B503460022E5E025
:10049000012696400D6805EA0604002C7DD04D68C3
:1004A000022D02D04D68122D13D1D60803F120057C
:1004B00055F826005507EE0E0F25B540A843560700
:1004C000F60E0D69B5402843D60803F1200545F81E
:1004D0002600186856000325B540A8430D7905F09D
:1004E00003055600B540284318604D68012D08D01B
:1004F0004D68022D05D04D68112D02D04D68122D8A
:1005000013D1986856000325B540A8435600CD681E
:10051000B54028439860586801259540A8430D7957
:10052000C5F300159540284358600D7905F0030583
:10053000032D09D1D86A01259540A8430D79C5F34B
:10054000C00595402843D862D86856000325B540B9
:10055000A84356008D68B5402843D8604D6805F023
:100560008055B5F1805F78D100BF3F4D2D6E45F0CD
:1005700001053D4E356635462D6E05F001050095A9
:1005800000BF00BF4FEAB635960855F8260095071C
:100590002E0F0F25B540A84300E05EE0B3F1904F69
:1005A00001D100251EE0314DAB4201D1012519E0FA
:1005B0002F4DAB4201D1022514E02E4DAB4201D1AB
:1005C00003250FE02C4DAB4201D104250AE02B4D51
:1005D000AB4201D1052505E0294DAB4201D10625ED
:1005E00000E007259607360FB5402843254D9608AD
:1005F00045F82600244D2868A0434D6805F4803551
:10060000B5F5803F00D120431F4D28602D1D28687F
:10061000A0434D6805F40035B5F5003F00D12043F7
:10062000194D2D1D28602D1D2868A0434D6805F427
:100630008015B5F5801F00D12043134D0835286083
:100640002D1D2868A0434D6805F40015B5F5001F61
:1006500000D120430C4D0C352860521C0D68D5404C
:10066000002D7FF415AF78BD001002400004004853
:1006700000080048000C0048001000480014004822
:1006800000180048080001400004014002461369B8
:100690000B400BB1012000E0002070470AB18161DE
:1006A00000E0816270470000014800687047000068
:1006B000C80000200348006803490968084401494C
:1006C00008607047C8000020D000002010B500244A
:1006D000032000F0A9F8002000F008F808B1012478
:1006E00001E000F02FF8204610BD000070B5044670
:1006F000002511480068D8B10F4800684FF47A719E
:10070000B1FBF0F00D490968B1FBF0F6304601F09D
:100710001BFE58B9102C07D200222146501E00F0B3
:1007200041F80748046004E0012502E0012500E0EB
:100730000125284670BD0000D0000020A80100203F
:10074000CC00002008B500BF0D48006E40F001004D
:100750000B4908660846006E00F00100009000BFDB
:1007600000BF00BF0846806D40F080508865084695
:10077000806D00F08050009000BF00BF08BD0000F9
:100780000010024001460846002809DB00F01F0364
:1007900001229A4043099B0003F1E023C3F80021A2
:1007A00000BF70472DE9F05F80460D4616460027D2
:1007B00004F0CCF9074639462A46334601F00700D3
:1007C000C0F1070ABAF1040F02D94FF0040A01E0A0
:1007D000C0F1070AD14600F1040ABAF1070F02D2AC
:1007E0004FF0000A01E0A0F1030AD4464FF0010ADD
:1007F0000AFA09FAAAF1010A0AEA020A0AFA0CFA42
:100800004FF0010B0BFA0CFBABF1010B0BEA030BE6
:100810004AEA0B042146404604F0A0F900F000B873
:1008200030BCBDE8C09F000000BF00F00702064BCF
:1008300019684FF6FF031940044B0B4343EA0221AA
:10084000014B196000BF70470CED00E00000FA0595
:1008500001460A680120C1F8FC03002081F8F40376
:10086000906940F000609061506D024B18435065F4
:10087000002070470300001070B504460D4615B106
:10088000012D2CD116E0206A38B102F0B4F81548D9
:10089000006820F00600134908602068D0F8000EB8
:1008A00020F001002168C1F8000ED4F8040402F021
:1008B00035FF14E02068D0F8000E40F001002168F8
:1008C000C1F8000ED4F8040402F0DDFF206A28B15C
:1008D0000448006840F006000249086000BF00BFFD
:1008E00070BD000010ED00E002461068416200207B
:1008F0007047F0B5034615461868446A21B944EAC2
:1009000005401E68B06219E01868806A04EB104464
:10091000002208E0186800F5827050F8220004EB0D
:100920001044501CC2B2481E9042F3D844EA054716
:10093000186800F582704E1E40F826700020F0BD49
:1009400010B50446D4F8040402F0F3FD10BD70B5F0
:1009500004460D46C5EBC50304F13C0101EB8301E0
:10096000CA682946D4F8040402F010FD70BD70B5C1
:1009700004460D46C5EBC50304F5FE7101EB83018A
:10098000CA682946D4F8040402F080FD70BD10B591
:100990000446D4F8040402F0CFFD10BD70B504463F
:1009A0000E4606F0800080280AD106F00F00C0EB4A
:1009B000C00104F13C0000EB81050120687009E0F2
:1009C00006F00F00C0EBC00104F5FE7000EB8105DE
:1009D0000020687006F00F00287000BF94F8BC0378
:1009E000012801D1022070BD012084F8BC0300BFA2
:1009F0002946206803F004FB00BF002084F8BC03F4
:100A000000BF00BFEFE770B504460E4606F00F00CA
:100A10006168884201D9012070BD06F080008028FD
:100A20000AD106F00F00C0EBC00104F13C0000EB5E
:100A300081050120687009E006F00F00C0EBC001DD
:100A400004F5FE7000EB8105002068700020A8709E
:100A500006F00F00287000BF94F8BC03012801D1F4
:100A60000220D9E7012084F8BC0300BF2946206892
:100A700003F01CFD00BF002084F8BC0300BF00BFD2
:100A8000CAE72DE9F04705460E4690461F464FF04F
:100A9000000906F0800080280AD106F00F00C0EBA4
:100AA000C00105F13C0000EB81040120607009E009
:100AB00006F00F00C0EBC00105F5FE7000EB8104ED
:100AC0000020607006F00F002070C4F80880E77006
:100AD000607808B12078E080022F01D100202071D9
:100AE00000BF95F8BC03012802D10220BDE8F087C1
:100AF000012085F8BC0300BF2146286803F096F961
:100B000000BF002085F8BC0300BF4846EEE72DE992
:100B1000F04105460E461746984606F00F00C0EB1A
:100B2000C00105F5FE7000EB8104E760C4F8148095
:100B30000020A061607006F00F00207006F00F002A
:100B400020B92146286803F0B9FB03E02146286854
:100B500003F040FD0020BDE8F08170B504460D466D
:100B600005F00F006168884201D9012070BD05F0D1
:100B7000800080280AD105F00F00C0EBC00104F10D
:100B80003C0000EB81060120707007E0C5EBC50159
:100B900004F5FE7000EB8106002070700120B0703B
:100BA00005F00F00307000BF94F8BC03012801D19C
:100BB0000220DBE7012084F8BC0300BF3146206837
:100BC00003F0BBFC05F00F0020B904F5717120683B
:100BD00003F040FC00BF002084F8BC0300BF00BF4E
:100BE000C4E72DE9F04105460E461746984606F043
:100BF0000F00C0EBC00105F13C0000EB8104E76091
:100C0000C4F814800020A0610120607006F00F007D
:100C1000207006F00F0020B92146286803F04EFB33
:100C200003E02146286803F0D5FC0020BDE8F081F0
:100C30002DE9FE4F044620680290029D00262068A0
:100C400003F06AFE002879D1206803F0A4FE08B9F9
:100C500000F074BA206803F09EFE00F00200022843
:100C600005D12068406900F00200216848612068D1
:100C700003F091FE00F40020B0F5002F50D10026C3
:100C8000206803F058FE824647E00AF00100E8B30E
:100C9000F1B2206803F072FE804608F0010048B10E
:100CA000012105F5306000EB461081603146204699
:100CB00001F042FC08F00800082809D1314620461E
:100CC00001F014FC082105F5306000EB461081604E
:100CD00008F01000102805D1102105F5306000EB58
:100CE0004610816008F02000202805D1202105F55C
:100CF000306000EB4610816008F40050B0F5005FF2
:100D000008D14FF4005105F5306000E002E000EB3F
:100D100046108160761C4FEA5A0ABAF1000FB4D12E
:100D2000206803F038FE00F48020B0F5802F61D1F8
:100D3000206803F0F6FD8246002658E0FCE10AF048
:100D40000100E8B3F1B2206803F0FFFD804608F02F
:100D50000100B8B106F00F0101208840019040F673
:100D600034004159019821EA000040F6340148510D
:100D7000012105F5106000EB46108160F1B22046BC
:100D8000FFF7E5FD08F00800082805D1082105F562
:100D9000106000EB4610816008F01000102805D1AB
:100DA000102105F5106000EB4610816008F040004E
:100DB000402807D1402105F5106000EB461000E007
:100DC00012E0816008F00200022805D1022105F539
:100DD000106000EB4610816008F08000802803D18D
:100DE0003146204601F0DEFB761C4FEA5A0ABAF182
:100DF000000FA4D1206803F0CEFD00F00040B0F158
:100E0000004F1CD140F60400405920F0010140F68B
:100E10000400415194F8F403012807D1002084F81C
:100E2000F40300212046FFF727FD02E0204600F0F2
:100E3000C5FA2068406900F00040216848612068D8
:100E400003F0A9FD00F40060B0F5006F0ED140F68C
:100E50000800405900F0010010B1204600F018FBD6
:100E60002068406900F4006021684861206803F050
:100E700092FD00F00060B0F1006F19D12068406968
:100E800000F000602168486194F8F40368B901201B
:100E900084F8F4032068406DC0F38300C4F8F803BD
:100EA00001212046FFF7E8FC02E0204600F0F0FABE
:100EB000206803F070FD00F48050B0F5805F71D1C0
:100EC00040F60400405920F0010140F60400415171
:100ED0001021206803F0F8FC002726E04FF67F3150
:100EE00005F5106000EB4710816005F5106000EB20
:100EF0004710006820F4001105F5106000EB471062
:100F000001604FF67F3105F5306000EB47108160DE
:100F100005F5306000EB4710006820F4001105F57E
:100F2000306000EB471001607F1C6068B842D5D884
:100F300040F61C00405940F0011140F61C004151A0
:100F4000206B70B1D5F8840840F00B01C5F8841807
:100F500040F64400405940F00B0140F64400415136
:100F60000FE040F61400405942F22B01084340F6CE
:100F700014014851081F405940F00B014FF4016023
:100F80004151D5F8000820F4FE60C5F8000804F5CA
:100F90007171206803F05EFA2068406900F48050A7
:100FA00021684861206803F0F6FC00F40050B0F5B9
:100FB000005F17D1206802F0A1FF206803F09CFCBD
:100FC000E06000F0FFFD0090227B2068009903F0B4
:100FD00031FD204600F0E0F92068406900F400503F
:100FE00021684861206803F0D6FC00F0100010284A
:100FF00046D12068806920F010002168886102983D
:10100000D0F8209009F00F00C0EBC00104F5FE708D
:1010100000EB810BC9F3434002281AD147F6F07068
:1010200009EA000030B3C9F30A12DBF80C10029889
:1010300003F0B6FCC9F30A11DBF80C000844CBF846
:101040000C00C9F30A11DBF818000844CBF81800AB
:1010500010E0C9F3434006280CD1082204F5717151
:10106000029803F09DFCC9F30A11DBF8180008444C
:10107000CBF818002068806940F010002168886172
:10108000206803F088FC00F00800082808D12046FA
:1010900000F0B0F92068406900F00800216848615C
:1010A000206803F078FC00F48010B0F5801F09D1AF
:1010B000F1B2204600F045F82068406900F4801045
:1010C00021684861206803F066FC00F40010B0F568
:1010D000001F09D1F1B2204600F03CF820684069B9
:1010E00000F4001021684861206803F054FC00F00F
:1010F0008040B0F1804F08D12046FFF721FC2068E6
:10110000406900F0804021684861206803F043FC9A
:1011100000F0040004280FD12068D0F8049009F0F2
:101120000400042802D12046FFF731FC2068406803
:1011300040EA09002168486000BF89E51EBCBDE89F
:10114000E08F70B504460D462946D4F8040402F039
:101150004FFA70BD70B504460D462946D4F8040414
:1011600002F049FA70BD70B58AB0044614B9012086
:101170000AB070BD266894F8BD0328B9002084F831
:10118000BC03204600F0A8F8032084F8BD03F06BF0
:1011900000F4807008B900212161206803F086F80E
:1011A000282204F110016846FFF77EF894E80F004A
:1011B00002F0C8FE20B1022084F8BD030120D7E769
:1011C0000021206803F0FDFB002531E00121C5EB83
:1011D000C50204F13C0000EB82004170C5EBC50183
:1011E00004F13C0000F82150C5EBC50100EB810083
:1011F000C5800021C5EBC50204F13C0000EB820074
:10120000C170C5EBC50204F13C0000EB82008160B7
:10121000C5EBC50204F13C0000EB8200C160C5EBE8
:10122000C50204F13C0000EB82004161681CC5B2BC
:101230006068A842CAD800252AE00021C5EBC50293
:1012400004F5FE7000EB82004170C5EBC50104F5AA
:10125000FE7000F821500021C5EBC50200EB8200B2
:10126000C170C5EBC50204F5FE7000EB8200816021
:10127000C5EBC50204F5FE7000EB8200C160C5EB52
:10128000C50204F5FE7000EB82004161681CC5B226
:101290006068A842D1D8282204F110016846FFF7FF
:1012A00003F894E80F0002F02DFF20B1022084F82B
:1012B000BD0301205CE7002084F83800012084F899
:1012C000BD03606A012802D12046FFF7C1FA2068F9
:1012D00002F008FF00204BE710B586B00446142149
:1012E00001A8FFF713F82068B0F1A04F50D100BF5C
:1012F0002848C06C40F001002649C8640846C06C0C
:1013000000F00100009000BF00BF4FF4C0500190FA
:101310000220029000200390032004900A200590F0
:1013200001A94FF09040FFF7AFF800BF1948C06C1B
:1013300040F480501749C8640846C06C00F48050DF
:10134000009000BF00BF0846806D00F08050A8B933
:1013500000BF0846806D40F0805088650846806D6B
:1013600000F08050009000BF00BF00F0F1F8094885
:10137000806D20F080500749886501E000F0E8F8B2
:10138000002211464320FFF70DFA4320FFF7FAF938
:1013900006B010BD0010024070B504460125E0689B
:1013A000022801D0FFF741F82946D4F8040402F0DE
:1013B000CDF9D4F8040402F083F970BD10B50446E9
:1013C0002068D0F8000E20F001002168C1F8000E5E
:1013D000206A38B10648006820F006000449086019
:1013E00001F009FBD4F8040402F098F910BD0000E4
:1013F00010ED00E010B50446D4F8040402F095F9AD
:1014000010BD70B504460D4600BF94F8BC0301281A
:1014100001D1022070BD012084F8BC0300BF84F814
:1014200038502946206803F0E7FA00BF002084F80E
:10143000BC0300BF00BFEDE710B5044604F57171B1
:10144000D4F8040402F0A8F910BD70B5044625686C
:1014500000BF94F8BC03012801D1022070BD012017
:1014600084F8BC0300BFA06A012803D1A86B40F434
:101470008030A863206802F025FE206803F006FA99
:1014800000BF002084F8BC0300BF00BFE6E70000F7
:1014900010B504462068D0F8000E40F00100216825
:1014A000C1F8000ED4F8040402F0EDF9206A28B166
:1014B0000348006840F006000149086010BD0000C4
:1014C00010ED00E00246B2F5007F2AD11D48006809
:1014D00000F4C060B0F5007F32D01A48006820F4F4
:1014E000C06040F40070174B186017480068322342
:1014F0005843164BB0FBF3F0411C00E0491E114865
:10150000406900F48060B0F5806F01D10029F5D109
:101510000C48406900F48060B0F5806F10D1032062
:1015200070470848006800F4C060B0F5806F07D0CD
:101530000448006820F4C06040F48060014B1860EB
:101540000020EDE700700040A801002040420F009D
:101550000348406840F480600149486070470000DB
:10156000007000400248006800F4C060704700004E
:10157000007000402DE9F84304460025A846208865
:1015800000F40060B0F5006F30D1606E80B1B0F54E
:10159000800F13D0B0F5000F03D0B0F5400F15D178
:1015A00013E0FB48C06840F48030F949C8600FE0A0
:1015B0000021201D01F054F8054609E0002104F146
:1015C000200001F013F9054602E001E0012500BF0B
:1015D00000BF55B9EE488830006820F44000616EC5
:1015E0000843EB49C1F8880000E0A846208800F4D1
:1015F0008050B0F5805F30D1A06E80B1B0F1807FB7
:1016000013D0B0F1007F03D0B0F1407F15D113E0CB
:10161000DF48C06840F48030DD49C8600FE0002139
:10162000201D01F01DF8054609E0002104F120000D
:1016300001F0DCF8054602E001E0012500BF00BF33
:1016400055B9D3488830006820F04070A16E084337
:10165000CF49C1F8880000E0A846206800F40030B7
:10166000B0F5003F77D14FF00009C948806D0121E6
:1016700021EA107078B100BFC548806D40F08050FD
:10168000C34988650846806D00F08050009000BF17
:1016900000BF4FF00109BF48006840F48070BD49A9
:1016A0000860FFF701F8074606E0FEF7FDFFC01BE4
:1016B000022801D9032505E0B648006800F48070CF
:1016C0000028F2D000BF85BBB1489030006800F41C
:1016D0004076D6B1D4F88400B04216D0AC489030F1
:1016E000006820F44076AA48D0F8900040F480309A
:1016F000A749C1F890000846D0F8900020F4803047
:10170000C1F890000846C0F8906006F00100A8B14A
:10171000FEF7CAFF074609E0FEF7C6FFC01B41F20D
:101720008831884202D9032507E017E098489030B5
:10173000006800F002000028EED000BF65B99448B0
:101740009030006820F44070D4F884100843904929
:10175000C1F8900003E00CE0A84600E0A846B9F10B
:10176000010F05D18A48806D20F080508849886536
:1017700000BF207800F0010048B18548883000683B
:1017800020F00300A16B08438149C1F8880020784C
:1017900000F00200022809D17D488830006820F05E
:1017A0000C00E16B08437A49C1F88800207800F00A
:1017B0000400042809D176488830006820F0300001
:1017C000216C08437249C1F88800207800F00800B5
:1017D000082809D16E488830006820F0C000616C8C
:1017E00008436B49C1F88800207800F010001028E9
:1017F00009D167488830006820F44070A16C084324
:101800006349C1F88800207800F02000202809D121
:101810005F488830006820F44060E16C08435C4910
:10182000C1F88800208800F40070B0F5007F09D16D
:1018300057488830006820F44020E16D084354493F
:10184000C1F88800208800F48060B0F5806F09D16D
:101850004F488830006820F44010216E08434C49FE
:10186000C1F88800207800F04000402809D148489D
:101870008830006820F44050216D08434449C1F885
:101880008800207800F08000802809D14048883006
:10189000006820F44040616D08433D49C1F888006C
:1018A000208800F48070B0F5807F09D138488830F6
:1018B000006820F44030A16D08433549C1F8880024
:1018C000208800F40050B0F5005F1FD13048883008
:1018D000006820F04060E16E08432D4988310860BF
:1018E000E06EB0F1006F06D12948C06840F4801066
:1018F0002749C8600AE0E06EB0F1806F06D101218F
:10190000201D00F0ADFE054605B1A846206800F494
:101910000020B0F5002F1FD11D488830006820F04E
:101920004060216F08431A4988310860206FB0F188
:10193000006F06D11648C06840F480101449C86092
:101940000AE0206FB0F1806F06D10121201D00F068
:1019500087FE054605B1A846206800F48020B0F552
:10196000802F24D10A488830006820F04060616FE1
:101970000843074988310860606FB0F1006F0BD1F0
:101980000348C06840F480100149C8600FE00000BF
:101990000010024000700040606FB0F1806F06D10F
:1019A0000121201D00F05CFE054605B1A8462088F7
:1019B00000F48040B0F5804F1FD12248006820F02D
:1019C0004050A16F08431F490860A06FB0F1805FCD
:1019D00007D10221201D00F043FE05466DB1A84647
:1019E0000BE0A06FB0F1005F07D1022104F12000ED
:1019F00000F0FCFE054605B1A846208800F4004032
:101A0000B0F5004F09D10F48006820F08040E16F29
:101A100008430C498839C1F88800206800F48030F8
:101A2000B0F5803F0AD10748006820F00040D4F8A4
:101A30008010084303498839C1F888004046BDE852
:101A4000F8830000881002402DE9F04104460D465D
:101A500014B90120BDE8F0815548006800F0070086
:101A6000A8420ED25248006820F00700284350498F
:101A700008600846006800F00700A84201D0012075
:101A8000E8E7207800F00100002840D060680328D3
:101A900006D14848006800F00070D8B90120D9E7A5
:101AA0006068022806D14348006800F4003088B915
:101AB0000120CFE7606830B93E48006800F00200BE
:101AC00040B90120C6E73B48006800F4806008B9CF
:101AD0000120BFE73748806820F0030061680843B1
:101AE00034498860FEF7E0FD064608E0FEF7DCFDBD
:101AF000801B41F28831884201D90320AAE72D4892
:101B0000806800F00C006168B0EB810FEED12078A6
:101B100000F00200022807D12648806820F0F0007B
:101B2000A1680843234988602148006800F0070045
:101B3000A8420ED91E48006820F0070028431C491F
:101B400008600846006800F00700A84201D00120A4
:101B500080E7207800F00400042807D11548806849
:101B600020F4E060E168084312498860207800F0C2
:101B70000800082808D10F48806820F460502169C7
:101B800040EAC1000B49886000F022F809498968E1
:101B9000C1F30311084A515C01F01F01C840074915
:101BA000086007480068FEF7A1FD0746384651E780
:101BB0000020024000100240E04C0008A801002074
:101BC000CC0000200148006870470000A8010020F8
:101BD000F0B500230020DFF8D4C0DCF808C00CF01A
:101BE0000C01DFF8C8C0DCF80CC00CF0030719B119
:101BF0000C291ED1012F1CD1DFF8B0C0DCF800C0C9
:101C00000CF0080CBCF1000F06D1DFF8A0C0DCF826
:101C100094C0CCF3032305E0DFF890C0DCF800C0EB
:101C2000CCF30313DFF888C05CF8233041B91846C1
:101C300006E0042901D11F4802E0082900D11E480E
:101C40000C2932D1DFF864C0DCF80CC00CF00304BE
:101C5000012C09D0022C02D0032C04D101E0154A3A
:101C600004E0154A02E000BF1A4600BF00BFDFF8DB
:101C70003CC0DCF80CC0CCF3021C0CF10106DFF810
:101C80002CC0DCF80CC0CCF3062C0CFB02FCBCFB1B
:101C9000F6F2DFF818C0DCF80CC0CCF3416C0CF1A4
:101CA000010C4FEA4C05B2FBF5F0F0BD001002400C
:101CB000F84C00080024F40000127A002DE9F843E3
:101CC000044614B90120BDE8F883F948806800F0A3
:101CD0000C07F748C06800F00306207800F01000F9
:101CE000102876D11FB10C2F75D1012E73D1F04879
:101CF000006800F0020018B1A06908B90120E2E70D
:101D0000EB48216A006800F0080020B1E84800684C
:101D100000F0F00005E0E6489430006800F47060E0
:101D2000000981421FD9206A00F012FE08B101208B
:101D3000C9E700BFDE48006840F00800DC490860E1
:101D40000846006820F0F000216A0843D84908607E
:101D500000BF0846406820F47F40E16940EA012066
:101D6000D34948601EE000BFD148006840F0080039
:101D7000CF4908600846006820F0F000216A084357
:101D8000CB49086000BF0846406820F47F40E16905
:101D900040EA0120C6494860206A00F0D9FD08B138
:101DA000012090E7FFF714FFC1498968C1F30311CF
:101DB000C04A515C01F01F01C840BF490860BF48DC
:101DC0000068FEF793FC8046B8F1000F4ED0404605
:101DD00079E74BE0FFE7A06980B3B548006840F0C1
:101DE0000100B3490860FEF75FFC054606E0FEF718
:101DF0005BFC401B022801D9032064E7AC48006863
:101E000000F002000028F2D000BFA948006840F0AE
:101E10000800A74908600846006820F0F000216A21
:101E20000843A349086000BF0846406820F47F408B
:101E3000E16940EA01209E49486017E0FFE79C48BD
:101E4000006820F001009A490860FEF72DFC054665
:101E500006E0FEF729FC401B022801D9032032E7E7
:101E60009348006800F002000028F2D1207800F0CA
:101E7000010000285CD0082F03D00C2F0AD1032EBC
:101E800008D18B48006800F4003088B3606878BBE4
:101E9000012018E700BF6068B0F5803F06D1844894
:101EA000006840F48030824908601AE06068B0F54C
:101EB000A02F0BD17E48006840F480207C49086048
:101EC0000846006840F4803008600AE078480068FE
:101ED00020F48030764908600846006820F48020AD
:101EE000086000BF606890B1FEF7DEFB054607E0C2
:101EF0001EE0FEF7D9FB401B642801D90320E2E66F
:101F00006B48006800F400300028F2D010E0FEF7C3
:101F1000CBFB054606E0FEF7C7FB401B642801D952
:101F20000320D0E66248006800F400300028F2D1B7
:101F3000207800F00200022852D1042F03D00C2F89
:101F400014D1022E12D15A48006800F4806018B1F2
:101F5000E06808B90120B6E65548406820F0F8501E
:101F6000217C40EA01605249486039E0E06800B3F2
:101F70004F48006840F480704D490860FEF794FBBC
:101F8000054606E0FEF790FB401B022801D903201E
:101F900099E64748006800F480600028F2D0444881
:101FA000406820F0F850217C40EA016040494860D8
:101FB00016E03F48006820F480703D490860FEF755
:101FC00073FB054606E0FEF76FFB401B022801D9B4
:101FD000032078E63648006800F480600028F2D1DB
:101FE000207800F00800082836D16069D0B1304868
:101FF0009430006840F001002D49C1F89400FEF7CC
:1020000053FB054606E0FEF74FFB401B022801D9B3
:10201000032058E626489430006800F002000028AB
:10202000F1D019E022489430006820F001002049E6
:10203000C1F89400FEF738FB054606E0FEF734FBD6
:10204000401B022801D903203DE61948943000685E
:1020500000F002000028F1D1207800F004000428EC
:1020600073D14FF000091248806D00F0805078B9AC
:1020700000BF0F48806D40F080500D4988650846CC
:10208000806D00F08050009000BF00BF4FF001094C
:102090000B48006800F4807008BB0948006840F4F1
:1020A000807007490860FEF7FFFA054611E000005E
:1020B00000100240E04C0008A8010020CC000020E5
:1020C00000700040FEF7F0FA401B022801D90320FF
:1020D000F9E59948006800F480700028F2D000BF4C
:1020E000A068012808D19548006840F00100934994
:1020F0009039C1F8900021E0A06805280FD18F48E1
:10210000006840F004008D499039C1F890000846FD
:10211000D0F8900040F00100C1F890000EE0874830
:10212000006820F0010085499039C1F89000084608
:10213000D0F8900020F00400C1F8900000BFA06823
:10214000A0B1FEF7B1FA054609E02EE0FEF7ACFAC1
:10215000401B41F28831884201D90320B3E577481A
:10216000006800F002000028F0D012E0FEF79CFAB0
:10217000054608E0FEF798FA401B41F28831884294
:1021800001D903209FE56D48006800F00200002897
:10219000F0D1B9F1010F07D168489038806D20F077
:1021A000805066499039886500BFA06A00285BD0DE
:1021B0000C2F78D0A06A022857D160489038006868
:1021C00020F080705D4990390860FEF76DFA054691
:1021D00006E0FEF769FA401B022801D9032072E5E8
:1021E00056489038006800F000700028F1D1D4E91A
:1021F0000B10401E41EA0011606B41EA0021A08FE4
:102200000122C2EB500041EA40514020005DC2EB88
:10221000500041EA4061A06B000941EA4040474953
:102220009039C968464A1140084344499039C8600A
:102230000846006840F0807008600846C06840F0BA
:102240008070C860FEF730FA054606E0FEF72CFA0B
:10225000401B022801D9032035E538489038006832
:1022600000F000700028F1D064E034489038006835
:1022700020F080703149903908600846006800F00D
:10228000205020B90846C06820F00300C8602B48E1
:102290009038C0682B49084028499039C860FEF73B
:1022A00003FA054607E00EE0FEF7FEF9401B0228A0
:1022B00001D9032007E521489038006800F000703C
:1022C0000028F1D136E0A06A012800D1FBE41B48C8
:1022D0009038C66806F00301E06A814228D106F012
:1022E0007001206B401EB1EB001F21D106F4FE41AE
:1022F000606BB1EB002F1BD106F40031A06B0728F7
:1023000001D0012000E00020814211D106F4C0017B
:10231000A08F0122C2EB5000B1EB405F08D106F064
:10232000C0614020005DC2EB5000B1EB406F01D0B6
:102330000120C8E40020C6E4007000409010024074
:102340008C809DF9FFFFEEFE70B504462546681EA1
:10235000B0F1807F01D301200FE0681E4FF0E02133
:1023600048610F214FF0FF3002F0F8FB00204FF0E2
:10237000E021886107200861002070BD00BFFEE7F2
:1023800030B50B46002100BF16E00A24B4EB107FE5
:1023900005D9302404EB107403F8114005E0412402
:1023A00004EB10740A3C03F81140000100254C00B6
:1023B000641C1D554C1CE1B29142E6DB30BD0000AF
:1023C00000B587B0142102A8FDF7A0FF00BF2B487D
:1023D000C06C40F001002949C8640846C06C00F098
:1023E0000100019000BF00BF00BF0846C06C40F074
:1023F0000200C8640846C06C00F00200019000BFF3
:1024000000BF00BF0846C06C40F01000C86408461A
:10241000C06C00F01000019000BF00BF002204213A
:102420001748FEF73BF900224FF480711548FEF77C
:1024300035F92F200290002003900220049002A979
:102440004FF09040FEF720F8042002900120039006
:1024500000200490059002A90948FEF715F84FF4F2
:10246000807002900120039000200490059002A942
:102470000448FEF709F807B000BD00000010024054
:10248000000400480010004810B500220D490E4815
:1024900000F01FFF08B1FDF7C8FF0C490A4801F022
:1024A00041FA08B1FDF7C1FF0949074800F0C5FB33
:1024B00008B1FDF7BAFF044801F0FEFA08B1FDF7D4
:1024C000B4FF10BD680000202C020020D4000020C2
:1024D0005800002000BFFEE77047000010B502481A
:1024E000FEF7A6FB10BD0000C80400202DE9F04750
:1024F00007460C463D682E46D5F8408006F530600C
:1025000000EB4410D0F808900A4880450BD109F43C
:102510000040B0F5004F06D14FF4004106F53060A1
:1025200000EB441081603846FEF786FF0020BDE8CE
:10253000F08700000A31544F2DE9F04707460C465A
:102540003E683546D6F8409005F5306000EB441003
:10255000D0F80880124881451BD108F40040B0F53E
:10256000004F07D14FF4004105F5306000EB4410F7
:10257000816012E008F02000202805D1202105F517
:10258000306000EB44108160E1B23846FEF7EFF9AD
:1025900003E0E1B23846FEF7EAF90020BDE8F08733
:1025A0000A31544F2DE9F05F07460E46D7F80090E8
:1025B000C846C6EBC60107F13C0000EB8104D4E934
:1025C0000510884202D9012000F045B8D4E9050180
:1025D000451AA068A84200D2A568E81C4FEA900AF4
:1025E00015E0D4E90501451AA068A84200D2A56803
:1025F000E81C4FEA900AABB2F2B24846E16802F03A
:102600008BFAE0682844E060A0692844A06108F5DE
:10261000106000EB4610806980B2504506D3D4E9C3
:102620000510884202D260690028DAD1D4E9050198
:1026300088420ED806F00F01012000FA01FB40F697
:10264000340050F8080020EA0B0040F6340141F84D
:1026500008000020B8E730BCBDE8C09F704700000C
:102660002DE9F04104460F4600255C48C06800F0A3
:10267000030090B15948C06800F003002168884207
:1026800009D1206838B15548C068C0F30210401C19
:102690006168884233D0012531E02068012804D0E8
:1026A000022809D003281AD10DE04C48006800F038
:1026B000020000B9012514E04848006800F4806079
:1026C00000B901250DE04548006800F4003028B944
:1026D0004248006800F4802000B9012501E001258E
:1026E00000BF00BF5DB9D4E90010401E41EA0010F0
:1026F0003A49C96821F0730108433849C860002D80
:1027000068D13648006820F0806034490860FDF7E1
:10271000CBFF064606E0FDF7C7FF801B022801D964
:10272000032505E02D48006800F000600028F2D184
:1027300000BFCDBB6FB9A0680002E168090940EA9B
:10274000414026490969264A114008432349086146
:1027500020E0012F0FD1A0680002218A0122C2EBE4
:10276000510140EA41501D4909691E4A1140084380
:102770001A4908610EE0A0680002217D0122C2EB27
:10278000510140EA416015490969174A114008435F
:10279000124908611148006840F080600F490860E4
:1027A000FDF782FF064607E014E0FDF77DFF801B82
:1027B000022801D9032505E00848006800F0006000
:1027C0000028F2D000BF2DB904480069A169084370
:1027D000024908612846BDE8F0810000001002406F
:1027E000FF80FDFFFF809FFFFF80FFF92DE9F04193
:1027F00004460F4600255348C06800F0030090B11E
:102800005048C06800F003002168884209D1206860
:1028100038B14C48C068C0F30210401C616888425F
:1028200033D0012531E02068012804D0022809D0E6
:1028300003281AD10DE04348006800F0020000B9F7
:10284000012514E03F48006800F4806000B90125CC
:102850000DE03C48006800F4003028B939480068B1
:1028600000F4802000B9012501E0012500BF00BF70
:102870005DB9D4E90010401E41EA00103149C96831
:1028800021F0730108432F49C860002D56D12D480F
:10289000006820F080502B490860FDF705FF0646D0
:1028A00006E0FDF701FF801B022801D9032505E0A2
:1028B0002448006800F000500028F2D100BF75BB2A
:1028C0006FB9A0680002E168090940EA41401D496A
:1028D00049691D4A114008431A4948610EE0A06841
:1028E0000002217C0122C2EB510140EA41601549FE
:1028F0004969164A11400843124948611148006865
:1029000040F080500F490860FDF7CEFE064607E014
:10291000FDF7CAFE801B022802D9032506E00DE060
:102920000848006800F000500028F1D000BF2DB921
:102930000448406961690843024948612846BDE886
:10294000F081000000100240FF80FDFFFF80FFF9D2
:10295000F8B5044600262348806D00F0805018B179
:10296000FEF700FE054616E000BF1E48806D40F0F1
:1029700080501C4988650846806D00F080500090AA
:1029800000BF00BFFEF7EEFD05461648806D20F043
:10299000805014498865B5F5007F07D1802C10D987
:1029A000A02C01D902260CE001260AE0802C01D9D6
:1029B000032606E0802C01D1022602E0702C00D113
:1029C00001260948006820F00700304306490860E6
:1029D0000846006800F00700B04201D00120F8BDB1
:1029E0000020FCE70010024000200240704710B5B4
:1029F000FDF760FE10BD10B500F001F810BD00B588
:102A0000B9B0442128A8FDF781FC142123A8FDF7C3
:102A10007DFC882101A8FDF779FC10202890012079
:102A20002E9000202F9060203090022032900121C3
:102A300028A8C16201631421416307218163022137
:102A4000C1630164FFF73AF908B1FDF7EEFC0F200E
:102A50002390032024900020259026902790022187
:102A600023A8FEF7F1FF08B1FDF7DFFC4FF400509B
:102A7000019040031C900120029001210391182134
:102A80000491072105910221069107910105089102
:102A900001A8FEF76FFD08B1FDF7C7FC4FF4007009
:102AA000FEF710FD08B1FDF7C0FC39B000BD000015
:102AB0001048006840F470000E4908600E48006835
:102AC00040F001000C49086000208860084600685A
:102AD0000A490840084908608814C8600846006828
:102AE00020F48020086000208861C80301498039F3
:102AF0000860704788ED00E000100240FFFFF6EA32
:102B000002460020D2F8903283F85000704770B52A
:102B100004460E46D4F8905269782878D4F8943256
:102B2000DA68904740232A460121204600F097FDAD
:102B3000002070BD70B504460D468121204600F08E
:102B400003FC0021E1620121204600F0FDFB002191
:102B5000C4F85811D4F8900250B1D4F8941288688F
:102B60008047D4F8900201F05AF90020C4F890028E
:102B7000002070BD70B50546D5F89042E06C012884
:102B800007D161782078D5F89432DA689047002030
:102B9000E064002070BD000001460A200880014862
:102BA000704700009C010020014629200880014850
:102BB000704700000C0100200146292008800148D0
:102BC0007047000038010020014629200880014894
:102BD00070470000640100202DE9F04104460F46D3
:102BE0000026402303228121204600F007FD012119
:102BF000E16240230322204600F000FD0121C4F8D9
:102C00005811542001F00CF9C4F89002D4F8900245
:102C100008B901260EE0D4F89052002085F8500043
:102C2000D4F894124868804740232A460121204660
:102C300000F015FD3046BDE8F0810246022011B1DA
:102C4000C2F89412002070472DE9F04104460D4669
:102C50001646D4F8907294F8740203280FD197F8AE
:102C6000500048B9012087F8500033462A46812198
:102C7000204600F012FE02E00120BDE8F0810020B5
:102C8000FBE700002DE9F84306460C46D6F89052C3
:102C90000027B846002000908146207800F06000B0
:102CA00090B3202870D16078801E0A2823D2DFE8F4
:102CB00000F0130822222222221A0F05A07828648D
:102CC00020E0012205F14001304600F004F919E04E
:102CD00060880012686415E0012205F14401304665
:102CE00000F0F9F80EE00120E864E2882946304659
:102CF00000F0D0F806E02146304600F0BFF84FF073
:102D0000020900BF00BF70E0FFE7607830B106281D
:102D100015D00A2839D00B2857D148E096F874020C
:102D2000032805D102226946304600F0D4F805E0B8
:102D30002146304600F0A2F84FF002094CE06088CE
:102D40002221B1EB202F0BD1E0884F2801D94F2051
:102D500000E0E0880746D6F89402D0F800800DE045
:102D600060882121B1EB202F08D1DFF88880E0882E
:102D7000092801D9092000E0E08807463A46414683
:102D8000304600F0A8F827E028E096F874020328FF
:102D900006D1012205F14801304600F09CF805E01B
:102DA0002146304600F06AF84FF0020914E096F828
:102DB0007402032802D1A078A86405E021463046B9
:102DC00000F05CF84FF0020906E02146304600F0C2
:102DD00055F84FF0020900BF00BF06E0214630461B
:102DE00000F04CF84FF0020900BF00BF4846BDE8B4
:102DF000F88300009001002070B504460D46D4F819
:102E00008C022946426820469047002070BD70B56C
:102E100004460D4694F87402012804D0022803D019
:102E200003280CD101E000BF00BF6888012805D14C
:102E30000020C4F87C02204600F05EF804E0294639
:102E4000204600F01BF800BF00BF70BD70B50646FD
:102E50000C4615462B4622460021304600F0FFFB6B
:102E6000002070BD70B506460C4615462B4622461E
:102E70000021304600F011FD002070BD70B5044601
:102E80000D468021204600F0BEFC0021204600F0C7
:102E9000BAFC70BD70B504460E4615460320C4F852
:102EA0006C024FF4A4700551001D05512B463246AB
:102EB0000021204600F0D3FB002070BD10B5044671
:102EC0000520C4F86C0200231A461946204600F07B
:102ED000C6FB002010BD70B504460E461546022004
:102EE000C4F86C02E56125622B463246002120467B
:102EF00000F0D3FC002070BD10B504460420C4F8D7
:102F00006C0200231A461946204600F0C6FC002039
:102F100010BD000070B505460C462DB92246064985
:102F200006A000F0ADF904E02246034903A000F03A
:102F3000A7F9014870BD000028090020437573748B
:102F40006F6D2048494420436F6E6669670000003A
:102F500002461220088001487047000088000020C7
:102F600070B505460C462DB92246064906A000F06C
:102F700087F904E02246034903A000F081F90148E3
:102F800070BD000028090020437573746F6D2048E0
:102F9000494420496E7465726661636500000000F3
:102FA000024604200880014870470000A800002065
:102FB00070B505460C462246024903A000F060F9B0
:102FC000004870BD2809002053544D6963726F6535
:102FD0006C656374726F6E696373000070B505464B
:102FE0000C462DB92246064906A000F049F904E036
:102FF0002246034903A000F043F9014870BD0000D8
:103000002809002053544D333220437573746F6D7B
:103010002048756D616E20696E74657266616365C6
:103020000000000070B505460C461A202080FDF710
:10303000FDF9014870BD0000AC00002002460C20E4
:1030400008800148704700009C00002070B50446CD
:103050000D46E888012804D029462046FFF70EFFD8
:103060001EE094F87402012804D0022803D003283B
:1030700010D109E000BF0020A060012204F1080186
:103080002046FFF728FF0AE00122211D2046FFF716
:1030900022FF04E029462046FFF7F0FE00BF00BFF4
:1030A00070BDF8B504460E467088001206286ED032
:1030B00006DC012810D0022816D0032870D127E0A2
:1030C000072874D00F28F9D1207CD4F88812CA6957
:1030D0006946904705467FE0207CD4F888120A684C
:1030E00069469047054677E0207C40B9D4F88C02C9
:1030F000816A6846884705460221697007E0D4F86E
:103100008C02C16A6846884705460221697063E0FF
:10311000B078062834D2DFE800F0030B131B232B12
:10312000207CD4F888124A686946904705462CE00E
:10313000207CD4F888128A6869469047054624E0C6
:10314000207CD4F88812CA686946904705461CE07E
:10315000207CD4F888120A6969469047054614E035
:10316000207CD4F888124A696946904705460CE0ED
:10317000207CD4F888128A6969469047054604E0A5
:1031800031462046FFF77AFEF8BD00BF24E0207CE0
:1031900040B9D4F88C02416B6846884705461BE06D
:1031A00015E004E031462046FFF768FEECE7207C9E
:1031B00040B9D4F88C02016B684688470546072160
:1031C000697009E031462046FFF758FEDCE73146DA
:1031D0002046FFF753FED7E700BFBDF8000088B1D7
:1031E000F08878B1F088BDF80010884202DDBDF8A3
:1031F000000000E0F0880090BDF80020294620463D
:10320000FFF769FEF08810B92046FFF775FE00BF92
:10321000BAE70146002002E0421CD0B2491C0A78FD
:10322000002AF9D1704770B504460D4694F874022F
:10323000012804D0022803D003281AD101E000BFDE
:1032400000BFE888022804D029462046FFF716FE72
:1032500014E00020E060D4F87C0218B1E06840F08F
:103260000200E060022204F10C012046FFF733FE69
:1032700004E029462046FFF701FE00BF00BF70BDF5
:103280002DE9F04104460D4617460026FCB12046C4
:10329000FFF7BFFF022101EB400038803A7830464B
:1032A000711CCEB22A5403223046711CCEB22A546D
:1032B0000AE014F8012B3046711CCEB22A540022C9
:1032C0003046711CCEB22A5420780028F1D1BDE8D6
:1032D000F08170B504460D4616460CB9022070BD4B
:1032E000D4F88C0210B10020C4F88C020DB1C4F8DF
:1032F0008852012084F874022670204600F02AF9D2
:103300000020ECE72DE9F04104460D460026002799
:103310002946D4F89802FDF776FB064636B1012E11
:1033200006D0022E06D0032E08D105E0002707E0C4
:10333000022705E0012703E0022701E0022700BF82
:1033400000BF3846BDE8F0812DE9F04104460D4646
:10335000002600272946D4F89802FDF71FFB0646F1
:1033600036B1012E06D0022E06D0032E08D105E07C
:10337000002707E0022705E0012703E0022701E01C
:10338000022700BF00BF3846BDE8F0812DE9F041BB
:1033900004460E461746002E64D104F11405D4F8F5
:1033A0006C02022848D1D5E90301884210D9D5E939
:1033B0000301401AE860A88982B239462046FFF727
:1033C00051FD00231A461946204600F048F93EE018
:1033D0002969A868B0FBF1F201FB1200B8B92969AC
:1033E000A868884213D3A868D4F8701288420ED215
:1033F000002211462046FFF735FD0020C4F8700278
:1034000000231A461946204600F029F91FE0D4F897
:103410008C02C06840B194F87402032804D1D4F837
:103420008C02C168204688478021204600F0EBF9D5
:103430002046FFF743FD0AE0D4F86C02042802D0CE
:10344000D4F86C0218B98021204600F0DCF994F819
:103450007802012818D1204600F06CFA002084F888
:10346000780211E0D4F88C02406950B194F87402EB
:10347000032806D1D4F88C02314642692046904791
:1034800002E00220BDE8F0810020FBE72DE9F041D9
:1034900004460E461746BEBB04F5A075D4F86C0270
:1034A000032825D1D5E90301884210D9D5E90301C4
:1034B000401AE860D5E90301884201D2E86800E0DB
:1034C000286982B239462046FFF7C0FC2FE0D4F8C5
:1034D0008C02006940B194F87402032804D1D4F836
:1034E0008C020169204688472046FFF705FD1EE053
:1034F000D4F86C0205281AD10020C4F86C0200210F
:10350000204600F080F912E0FFE7D4F88C028069D1
:1035100050B194F87402032806D1D4F88C023146D5
:1035200082692046904702E00220BDE8F081002039
:10353000FBE701460020704710B50446012084F8DF
:1035400074022179D4F88C0242682046904700200A
:1035500010BD000010B504462078002828D1154879
:10356000C0F80444C4F898024FF0A0401149086024
:103570000620486002210F48C16081610021C161BD
:103580000162416281620163C162FDF7ECFD08B135
:10359000FCF74BFF80210748FDF7A6F940220021E8
:1035A0000448FDF7A6F9802201210248FDF7A1F9A0
:1035B000002010BDC804002010B50246D2F8983291
:1035C00001F08000802809D101F07F00C0EBC00429
:1035D00003F13C0000EB8400807810BD01F07F0017
:1035E000C0EBC00403F5FE7000EB84008078F4E7C4
:1035F0000246002070470246002070472DE9F04740
:1036000004460F4615461E464FF00008C1462B469D
:1036100032463946D4F89802FDF733FA8046B8F1BD
:10362000000F09D0B8F1010F09D0B8F1020F09D08D
:10363000B8F1030F0CD108E04FF000090BE04FF098
:10364000020908E04FF0010905E04FF0020902E02D
:103650004FF0020900BF00BF4846BDE8F0872DE9E2
:10366000F04704460D4616461F464FF00008C14677
:103670003B4632462946D4F89802FDF748FA804680
:10368000B8F1000F09D0B8F1010F09D0B8F1020F5D
:1036900009D0B8F1030F0CD108E04FF000090BE09E
:1036A0004FF0020908E04FF0010905E04FF0020970
:1036B00002E04FF0020900BF00BF4846BDE8F087B6
:1036C00010B504464023002211462046FFF796FF1E
:1036D00001214FF4A270015140214FF4A870015113
:1036E0004023002280212046FFF788FF0121A161AD
:1036F00040216162012084F874020020C4F86C0249
:103700006060C4F87C02D4F8900228B12179D4F822
:103710008C02426820469047002010BD014691F877
:10372000750281F874020020704710B5044694F8C1
:103730007402032808D1D4F88C02C06920B1D4F8EF
:103740008C02C16920468847002010BD02461174D2
:10375000002070472DE9F04104460D460026002761
:103760002946D4F89802FDF74CFE064636B1012EE4
:1037700006D0022E06D0032E08D105E0002707E070
:10378000022705E0012703E0022701E0022700BF2E
:1037900000BF3846BDE8F08170B504460D462946A5
:1037A00004F5207000F0AAF80120C4F86C0240F281
:1037B0008620005BC4F8700294F8800200F01F00BD
:1037C00020B1012808D0022812D10BE004F52071A5
:1037D000204600F078F913E004F52071204600F04F
:1037E000DFFA0DE004F52071204600F0BDF907E096
:1037F00094F8800200F08001204600F004F800BF39
:1038000000BF002070BD2DE9F04104460D460026A2
:1038100000272946D4F89802FDF79FF9064636B1ED
:10382000012E06D0022E06D0032E08D105E0002777
:1038300007E0022705E0012703E0022701E0022755
:1038400000BF00BF3846BDE8F08170B504460025D2
:103850000026D4F89802FDF7F8FD054635B1012D94
:1038600006D0022D06D0032D08D105E0002607E082
:10387000022605E0012603E0022601E0022600BF41
:1038800000BF304670BD014691F8740281F87502A0
:10389000042081F87402002070472DE9F0470446A7
:1038A0000D4616461F464FF00008C1463B463246BD
:1038B0002946D4F89802FDF794F98046B8F1000F34
:1038C00009D0B8F1010F09D0B8F1020F09D0B8F151
:1038D000030F0CD108E04FF000090BE04FF0020994
:1038E00008E04FF0010905E04FF0020902E04FF057
:1038F000020900BF00BF4846BDE8F0870A780270A1
:103900004A7842708B78CA7803EB022242800B79A6
:103910004A7903EB022282808B79CA7903EB022277
:10392000C28070470246002011B1C2F88C1200E03C
:103930000220704701460020704770B504460D46CE
:10394000A88810BBE88800BB688880281DD2A878AA
:1039500000F07F0694F87402032804D1294620461B
:10396000FFF78CFA15E084F8766231462046FFF7BF
:10397000F1FE2046FFF7C0FA1EB1022084F874025F
:1039800007E0012084F8740203E029462046FFF78F
:1039900075FA70BD70B504460D460226D4F88C0247
:1039A00038B1D4F88C02294602682046904700B905
:1039B0000026304670BD000070B504460D46A8785C
:1039C0003649087008460078012804D9294620465F
:1039D000FFF754FA60E094F87402022802D003283A
:1039E0004FD11CE02D480078A8B12C4800786060C9
:1039F000032084F87402294801782046FFF7CAFFA3
:103A0000022804D129462046FFF738FA70BD204627
:103A1000FFF772FA02E02046FFF76EFA3BE01F481C
:103A2000007870B9022084F874021C480078606045
:103A30001A4801782046FFF7DFF92046FFF75CFAC5
:103A40001EE0164909786068884216D02179204620
:103A5000FFF7D2F9114800786060104801782046DD
:103A6000FFF798FF022804D129462046FFF706FAFF
:103A7000CCE72046FFF740FA02E02046FFF73CFA89
:103A800009E029462046FFF7F9F904480178204665
:103A9000FFF7B2F900BF00BF00BFB7E7A6010020E3
:103AA00070B505460C466088012804D1C5F87C0233
:103AB0002846FFF721FA70BD10B504462046FFF7EF
:103AC000C4FE002010BD70B505460C4600262078C7
:103AD00000F0600060B1202802D040283CD100E016
:103AE00000BFD5F88C02214682682846904738E00E
:103AF00060780A2829D2DFE800F01923281E280A56
:103B00000528140F21462846FFF7CBFA22E021466C
:103B10002846FFF712FF1DE021462846FFF74CFF1D
:103B200018E021462846FFF791FA13E0214628467F
:103B3000FFF779FB0EE021462846FFF7B1FF09E0C9
:103B400021462846FFF763F904E021462846FFF79F
:103B500095F900BF00BF04E021462846FFF78EF923
:103B600000BF00BF304670BD2DE9F04105460E464E
:103B70004FF000083479307800F0600060B1202800
:103B800002D0402871D100E000BFD5F88C02314648
:103B900082682846904700E1307800F060002028D5
:103BA00009D1D5F88C023146826828469047804674
:103BB0004046BDE8F081707800285ED001282FD003
:103BC000032876D195F87402022802D0032820D168
:103BD00010E054B1802C08D021462846FFF713FE90
:103BE00080212846FFF70FFE03E031462846FFF705
:103BF00045F913E0708840B93CB1802C05D0F088BD
:103C000018B921462846FFF7FEFD2846FFF774F94C
:103C100004E031462846FFF731F900BF00BFB5E0A8
:103C200095F87402022802D003281FD110E054B185
:103C3000802C08D021462846FFF7E5FD8021284644
:103C4000FFF7E1FD03E031462846FFF717F912E0E0
:103C5000708848B904F07F0018B121462846FFF764
:103C600051FB2846FFF748F905E091E03146284628
:103C7000FFF704F900BF00BF88E095F8740202283E
:103C800002D0032876D126E034B1802C04D031460E
:103C90002846FFF7F3F872E004F08000802809D18D
:103CA00004F07F0000EB800105F1140000EB8100BF
:103CB00008E066E004F07F0000EB800105F5A070ED
:103CC00000EB810007460020386002223946284672
:103CD000FFF701F953E004F0800080280ED104F0D2
:103CE0000F0000EB800105F1140000EB810040683B
:103CF00098B931462846FFF7C1F840E004F00F00BC
:103D000000EB800105F5A07000EB8100406820B950
:103D100031462846FFF7B2F831E004F080008028F1
:103D200008D104F07F0000EB800105F1140000EBE6
:103D3000810007E004F07F0000EB800105F5A07032
:103D400000EB810007460CB1802C02D100203860C6
:103D500009E021462846FFF72FFC10B1012038600A
:103D600001E000203860022239462846FFF7B3F808
:103D700005E0FFE731462846FFF780F800BF00BFA7
:103D800004E031462846FFF779F800BF00BF04E0A1
:103D900031462846FFF772F800BF00BF404608E7EB
:103DA00070B505460C460026207800F0600030B162
:103DB000202802D040282AD100E000BF00BF95F89B
:103DC0007402012804D0022803D0032818D101E08E
:103DD00000BF00BF207901280DD8D5F88C022146FC
:103DE0008268284690470646E08840B93EB9284692
:103DF000FFF782F803E021462846FFF73FF804E08A
:103E000021462846FFF73AF800BF00BF04E02146EC
:103E10002846FFF733F800BF00BF002070BD704791
:103E20000146014870470000D008002070B50446E4
:103E30000B4622461978587801282CD140F61C00F0
:103E400080581D7805F00F060125B540ADB2284316
:103E500040F61C05A85002F5106000EB4110006808
:103E600000F40040F0BB1889C0F30A00DD7840EA96
:103E7000854040EA815040F0805040F4004002F517
:103E8000106505EB41152D68284302F5106505EB1B
:103E9000411528602DE040F61C0080581D7805F083
:103EA0000F060125B540144E06EA0545284340F6A5
:103EB0001C05A85002F5306000EB4110006800F4CA
:103EC000004078B91889C0F30A00DD7840EA8540DF
:103ED00040F0805040F4004002F5306505EB41159C
:103EE0002D6800E005E0284302F5306505EB41153B
:103EF0002860002070BD00000000FFFF0246114650
:103F00004FF410604058C30ADB024FF41060435076
:103F100040F60800405800F00600042807D14FF48E
:103F20001060405840F003034FF41060435040F6D7
:103F30000400405840F4807340F6040043500020D1
:103F4000704700000FB470B504460A98012817D1D5
:103F5000A06B20F48030A063E06815490840E06061
:103F6000E06820F44010E0601198012803D1E06877
:103F700040F48010E060204600F01CF8054612E096
:103F8000E06840F04000E060204600F013F805468D
:103F90000E9820B9A06B40F48030A06303E0A06BC2
:103FA00020F48030A063284670BC5DF814FB00004C
:103FB000BFFFBDFF0146002200BF501C02460F4B51
:103FC000984201D903207047086900F0004000289A
:103FD000F3D00022086940F00100086100BF501CC6
:103FE0000246064B984201D90320ECE7086900F02D
:103FF00001000028F3D100BFE5E70000400D0300F9
:1040000070B504460B4621461A785878012826D107
:1040100040F63C0040581D7805F00F060125B540DC
:10402000ADB2A84340F63C05685040F61C0040582D
:104030001D7805F00F060125B540ADB2A84340F646
:104040001C05685001F5106000EB421000681A4D25
:10405000284001F5106505EB4215286029E040F67F
:104060003C0040581D7805F00F060125B540134E61
:1040700006EA0545A84340F63C05685040F61C009A
:1040800040581D7805F00F060125B5400B4E06EA95
:104090000545A84340F61C05685001F5306000EB6B
:1040A00042100068064D284001F5306505EB4215C9
:1040B0002860002070BD0000007833EC0000FFFF96
:1040C0000078F3EF70B50446254640F604004059E9
:1040D00020F0020140F6040041510320FCF7C0F932
:1040E000002070BD70B50446254640F604004059D6
:1040F00040F0020140F6040041510320FCF7B0F902
:10410000002070BD0FB4F0B5054600272E460024F0
:1041100005E0002105F5827040F82410641C0F2C86
:10412000F7D3109860B9A86B20F40010A863286832
:1041300040F040002860286840F08000286003E0DC
:10414000A86B40F40010A8630020C6F8000ED6F853
:104150000008C6F800080321284600F062FC102180
:10416000284600F0B1FB00B10127284600F096FB7D
:1041700000B1012700214FF401608151001D8151E0
:1041800040F61C00815100242EE006F5106000EB83
:104190004410006800F00040B0F1004F10D13CB96D
:1041A0004FF0006106F5106000EB441001600DE077
:1041B0004FF0904106F5106000EB4410016005E0FF
:1041C000002106F5106000EB44100160002106F5A7
:1041D000106000EB441001614FF67F3106F510606E
:1041E00000EB44108160641C0698A042CDD80024E6
:1041F0002EE006F5306000EB4410006800F000404F
:10420000B0F1004F10D13CB94FF0006106F53060BD
:1042100000EB441001600DE04FF0904106F5306076
:1042200000EB4410016005E0002106F5306000EB72
:1042300044100160002106F5306000EB441001617C
:104240004FF67F3106F5306000EB44108160641C4E
:104250000698A042CDD84FF40160805920F48071B7
:104260004FF4016081510020A8616FF080406861C7
:10427000A86940F01000A861A8690A490843A8612C
:104280000C9818B1A86940F00800A861109801289E
:1042900003D1A86904490843A8613846F0BC5DF819
:1042A00014FB000000383C80040000400146886890
:1042B00020F00100886000207047000070B50446BF
:1042C0000B4622461978587801287AD1586920BBC4
:1042D00002F5106000EB411000695D4D284002F5C9
:1042E000106505EB4115286102F5106000EB4110E7
:1042F000006940F4002502F5106000EB41100561F3
:1043000002F5106000EB41100069C50CED0402F5E8
:10431000106000EB4110056137E002F5106000EB22
:1043200041100069C50CED0402F5106000EB41106E
:10433000056102F5106000EB41100069444D284012
:1043400002F5106505EB411528619D685869A84282
:1043500001D99868586102F5106000EB41100069BE
:1043600040F4002502F5106000EB4110056102F5F4
:10437000106000EB411000695D69C5F31205284328
:1043800002F5106505EB4115286102F5106000EBA0
:104390004110006840F0044502F5106000EB411048
:1043A00005605869F0B340F6340080581D7805F078
:1043B0000F060125B540284340F63405A85044E0D7
:1043C000FFE702F5306000EB41100069C50CED0419
:1043D00002F5306000EB4110056102F5306000EB42
:1043E000411000691A4D284002F5306505EB411572
:1043F0002861586908B19868586102F5306000EB8F
:104400004110006940F4002502F5306000EB4110D6
:10441000056102F5306000EB411000699D68C5F34D
:10442000120500E011E0284302F5306505EB411567
:10443000286102F5306000EB4110006840F004454F
:1044400002F5306000EB41100560002070BD0000F7
:10445000FFFF07E030B502460C461146136C1248C8
:10446000834209D94FF43060405800F00040B0F169
:10447000004F01D1002030BD0025C1F8105BD1F8FC
:10448000100B40F40025C1F8105BD1F8100B40F080
:104490001805C1F8105BD1F8100B40F0C045C1F809
:1044A000105B0020E7E700000A30544F30B50446A7
:1044B0000B4622461978587801281ED102F5106063
:1044C00000EB4110006820F4001502F5106000EBCD
:1044D00041100560D878032802D0D87802282AD164
:1044E00002F5106000EB4110006840F0805502F5C5
:1044F000106000EB411005601DE002F5306000EB3C
:104500004110006820F4001502F5306000EB411006
:104510000560D878032802D0D87802280BD102F59C
:10452000306000EB4110006840F0805502F53060CB
:1045300000EB41100560002030BD30B504460B464D
:10454000224619785878012821D102F5106000EB35
:104550004110006800F0004060B959B102F51060E8
:1045600000EB4110006820F0804502F5106000EB80
:104570004110056002F5106000EB4110006840F446
:10458000001502F5106000EB4110056020E002F517
:10459000306000EB4110006800F0004060B959B194
:1045A00002F5306000EB4110006820F0804502F514
:1045B000306000EB4110056002F5306000EB411007
:1045C000006840F4001502F5306000EB4110056012
:1045D000002030BD2DE9F04180460E464546347836
:1045E000707801287DD1706920BB05F5106000EB63
:1045F00044100069A449084005F5106101EB44111D
:10460000086105F5106000EB4410006940F40021DA
:1046100005F5106000EB4410016105F5106000EB3A
:1046200044100069C10CC90405F5106000EB44108A
:10463000016155E005F5106000EB44100069C10C04
:10464000C90405F5106000EB4410016105F5106028
:1046500000EB441000698C49084005F5106101EB3E
:1046600044110861B16870690844401EB0FBF1F064
:104670008549C94301EAC04005F5106101EB4411C9
:104680000969084305F5106101EB4411086105F55E
:10469000106000EB441000697169C1F31201084316
:1046A00005F5106101EB44110861F078012817D17C
:1046B00005F5106000EB4410006920F0C04105F5DD
:1046C000106000EB4410016105F5106000EB441030
:1046D000006940F0005105F5106000EB44100161E5
:1046E00000E045E005F5106000EB4410006840F084
:1046F000044105F5106000EB44100160F0780128DA
:104700000FD0706900280BD040F634004159307842
:1047100000F00F0201209040014340F63400415167
:10472000AEE040F60800405900F4807060B905F52D
:10473000106000EB4410006840F0005105F5106077
:1047400000EB441001600BE005F5106000EB441035
:10475000006840F0805105F5106000EB44100160E6
:10476000B08A83B232784046F16800F0D5F987E02C
:1047700005F5306000EB44100069C10CC90405F573
:10478000306000EB4410016105F5306000EB44102F
:1047900000693D49084005F5306101EB44110861AD
:1047A0007069D0B905F5306000EB44100069B1685C
:1047B000C1F31201084305F5306101EB44110861B2
:1047C00005F5306000EB4410006940F4002105F568
:1047D000306000EB4410016124E0B1687069084466
:1047E000401EB0FBF1F087B205F5306000EB4410DD
:1047F00000692549C94301EAC741084305F530610D
:1048000001EB4411086105F5306000EB44100069CC
:10481000B1687943C1F31201084305F5306101EB3A
:1048200044110861F07801281ED140F60800405973
:1048300000F4807060B905F5306000EB441000684A
:1048400040F0005105F5306000EB441001600BE0D2
:1048500005F5306000EB4410006840F0805105F52C
:10486000306000EB4410016005F5306000EB44104F
:10487000006840F0044105F5306000EB4410016031
:104880000020BDE8F0810000FFFF07E001468868D6
:1048900040F00100886000207047000001460022BF
:1048A0001020086100BF501C0246064B984201D9F7
:1048B00003207047086900F010001028F3D0002092
:1048C000F7E70000400D030010B50246002320204A
:1048D00040EA8110106100BF581C0346054CA042FD
:1048E00001D9032010BD106900F020002028F3D06A
:1048F0000020F7E7400D030010B501460B4640F6D7
:104900000804E45804F00602022A01D0062A01D164
:10491000022000E00F2010BD0146486900F00100B0
:10492000704701460B4640F61800C258001DC0589B
:10493000024090B2704701460B4640F61800C2583C
:10494000001DC0580240100C704770B50246134657
:104950004FF40166F45840F63406F55801F00F069E
:1049600025FA06F606F0010644EAC61403F51066B9
:1049700006EB4116B66806EA040070BD10B50246A3
:10498000134603F5306404EB4114A06840F61404A8
:10499000E458204010BD014648698A6910407047BC
:1049A000F0B503461E460846D71CBD08002405E0A6
:1049B0004FF48057BF590760001D641CAC42F7D309
:1049C000F0BD70B504460D46E06820F0C040E060E0
:1049D000012D04D1E06840F00050E06007E025B907
:1049E000E06840F08040E06001E0012070BD3220CE
:1049F000FBF736FD0020F9E710B502460B461146DD
:104A0000D1F8000820F4FE60C1F80008D1F80008D1
:104A10004FF4FE6404EA03142043C1F800080020A8
:104A200010BD02461346D3F800080843C3F8000837
:104A30000020704730B503461446022C49D12C485B
:104A4000814204D32B48814201D20F2242E02948FF
:104A5000814204D32848814201D20E223AE02648FE
:104A6000814204D32548814201D20D2232E02348FD
:104A7000814204D32248814201D20C222AE02048FC
:104A8000814204D31F48814201D20B2222E01D48FB
:104A9000814204D31C48814201D20A221AE01A48FA
:104AA000814204D31948814201D2092212E01748F9
:104AB000814204D31648814201D208220AE01448F8
:104AC000814204D31348814201D2072202E0062228
:104AD00000E00922D86820F47050D860D8684FF4FC
:104AE000705505EA82252843D860002030BD0000BB
:104AF000C0ACD800C0E1E4000024F40080730601DB
:104B0000A0491A01002D310140A44C0100366E016C
:104B100020ABA6010048E8012DE9F0410446A44677
:104B20000D46D81C8708002609E00CF5805000EBE4
:104B30000230D5F80080C0F800802D1D761CBE42E2
:104B4000F3D30020BDE8F08100BFFEE70248006813
:104B5000C0F30220704700000CED00E010B5002803
:104B600004DB0A07130E054A135406E00A07140E65
:104B7000034A00F00F031B1FD45410BD00E400E0F3
:104B800018ED00E0FBF7A2FDFDF739FFFDF718FC7B
:104B9000FDF77AFC8EE048480078012830D147487C
:104BA000407808B1012400E000244448007800F077
:104BB0000300012802D002281DD10DE0012C05D1EF
:104BC000012204213E48FBF769FD04E00022042194
:104BD0003B48FBF763FD0FE0012C05D101221102D8
:104BE0003848FBF75BFD05E000224FF48071354843
:104BF000FBF754FD00E000BF00BF00202E49087005
:104C000001214FF09040FBF741FD2F4948700221F0
:104C10004FF09040FBF73AFD2B49887004214FF08C
:104C20009040FBF733FD2849C87008214FF09040B1
:104C3000FBF72CFD2449087120214FF09040FBF731
:104C400025FD2149487104211D48FBF71FFD05463C
:104C50004FF480711B48FBF719FD45EA40001A49E3
:104C600088710846407870B90846807858B9084677
:104C7000C07840B90846007928B90846407910B98B
:104C80000846807930B104200F49087001200F498F
:104C9000087002E000200D49087055200A49C871CB
:104CA000AA20087209480078012803D1092208487F
:104CB000FDF7CAFF6FE7000000000020AC010020F4
:104CC0000004004800100048EC0100200100002012
:104CD0002C0200204FF04070E1EE100A70470000F7
:104CE000000000000000000001020304060708099C
:104CF0000000000001020304A0860100400D030033
:104D0000801A060000350C0040420F0080841E000F
:104D100000093D0000127A000024F40000366E0104
:104D20000048E801006CDC02484D0008000000204B
:104D3000AC010000C4010008304E0008AC010020A6
:104D4000DC0F000020020008411206100BFF0901D1
:104D5000A10185010901152809250175089501B1F1
:104D6000820E9F91828502090214190E19141503EF
:104D70000903151326FF5915190F19151C040904E9
:104D80001055088182C022041420DD031B08D704BB
:104D90001AF10413512F1B08A1041AB1041ADD04DF
:104DA0001325301B0815081A61041A3D0C35120131
:104DB0000102164083045057260201020301140524
:104DC0000F0C2D0107100219071E040309041A0312
:104DD000321019371113D92B1B08350413852C42B7
:104DE000081A750C1A01041A0F04C11AB9101AA96D
:104DF000041AC9041A9904140902291301011CC0D8
:104E00003209BE2A026D15092111011401224F1623
:104E100007058103402D0507050107291A09562CAE
:104E2000691A31130A0629FB2A40D41113093D00DF
:040000050800026984
:00000001FF
